{
  "contractName": "StarNotary",
  "abi": [
    {
      "inputs": [],
      "stateMutability": "nonpayable",
      "type": "constructor"
    },
    {
      "anonymous": false,
      "inputs": [
        {
          "indexed": true,
          "internalType": "address",
          "name": "owner",
          "type": "address"
        },
        {
          "indexed": true,
          "internalType": "address",
          "name": "approved",
          "type": "address"
        },
        {
          "indexed": true,
          "internalType": "uint256",
          "name": "tokenId",
          "type": "uint256"
        }
      ],
      "name": "Approval",
      "type": "event"
    },
    {
      "anonymous": false,
      "inputs": [
        {
          "indexed": true,
          "internalType": "address",
          "name": "owner",
          "type": "address"
        },
        {
          "indexed": true,
          "internalType": "address",
          "name": "operator",
          "type": "address"
        },
        {
          "indexed": false,
          "internalType": "bool",
          "name": "approved",
          "type": "bool"
        }
      ],
      "name": "ApprovalForAll",
      "type": "event"
    },
    {
      "anonymous": false,
      "inputs": [
        {
          "indexed": true,
          "internalType": "address",
          "name": "from",
          "type": "address"
        },
        {
          "indexed": true,
          "internalType": "address",
          "name": "to",
          "type": "address"
        },
        {
          "indexed": true,
          "internalType": "uint256",
          "name": "tokenId",
          "type": "uint256"
        }
      ],
      "name": "Transfer",
      "type": "event"
    },
    {
      "inputs": [
        {
          "internalType": "address",
          "name": "to",
          "type": "address"
        },
        {
          "internalType": "uint256",
          "name": "tokenId",
          "type": "uint256"
        }
      ],
      "name": "approve",
      "outputs": [],
      "stateMutability": "nonpayable",
      "type": "function"
    },
    {
      "inputs": [
        {
          "internalType": "address",
          "name": "owner",
          "type": "address"
        }
      ],
      "name": "balanceOf",
      "outputs": [
        {
          "internalType": "uint256",
          "name": "",
          "type": "uint256"
        }
      ],
      "stateMutability": "view",
      "type": "function"
    },
    {
      "inputs": [
        {
          "internalType": "uint256",
          "name": "tokenId",
          "type": "uint256"
        }
      ],
      "name": "getApproved",
      "outputs": [
        {
          "internalType": "address",
          "name": "",
          "type": "address"
        }
      ],
      "stateMutability": "view",
      "type": "function"
    },
    {
      "inputs": [
        {
          "internalType": "address",
          "name": "owner",
          "type": "address"
        },
        {
          "internalType": "address",
          "name": "operator",
          "type": "address"
        }
      ],
      "name": "isApprovedForAll",
      "outputs": [
        {
          "internalType": "bool",
          "name": "",
          "type": "bool"
        }
      ],
      "stateMutability": "view",
      "type": "function"
    },
    {
      "inputs": [],
      "name": "name",
      "outputs": [
        {
          "internalType": "string",
          "name": "",
          "type": "string"
        }
      ],
      "stateMutability": "view",
      "type": "function"
    },
    {
      "inputs": [
        {
          "internalType": "uint256",
          "name": "tokenId",
          "type": "uint256"
        }
      ],
      "name": "ownerOf",
      "outputs": [
        {
          "internalType": "address",
          "name": "",
          "type": "address"
        }
      ],
      "stateMutability": "view",
      "type": "function"
    },
    {
      "inputs": [
        {
          "internalType": "address",
          "name": "from",
          "type": "address"
        },
        {
          "internalType": "address",
          "name": "to",
          "type": "address"
        },
        {
          "internalType": "uint256",
          "name": "tokenId",
          "type": "uint256"
        }
      ],
      "name": "safeTransferFrom",
      "outputs": [],
      "stateMutability": "nonpayable",
      "type": "function"
    },
    {
      "inputs": [
        {
          "internalType": "address",
          "name": "from",
          "type": "address"
        },
        {
          "internalType": "address",
          "name": "to",
          "type": "address"
        },
        {
          "internalType": "uint256",
          "name": "tokenId",
          "type": "uint256"
        },
        {
          "internalType": "bytes",
          "name": "_data",
          "type": "bytes"
        }
      ],
      "name": "safeTransferFrom",
      "outputs": [],
      "stateMutability": "nonpayable",
      "type": "function"
    },
    {
      "inputs": [
        {
          "internalType": "address",
          "name": "operator",
          "type": "address"
        },
        {
          "internalType": "bool",
          "name": "approved",
          "type": "bool"
        }
      ],
      "name": "setApprovalForAll",
      "outputs": [],
      "stateMutability": "nonpayable",
      "type": "function"
    },
    {
      "inputs": [
        {
          "internalType": "uint256",
          "name": "",
          "type": "uint256"
        }
      ],
      "name": "starsForSale",
      "outputs": [
        {
          "internalType": "uint256",
          "name": "",
          "type": "uint256"
        }
      ],
      "stateMutability": "view",
      "type": "function"
    },
    {
      "inputs": [
        {
          "internalType": "bytes4",
          "name": "interfaceId",
          "type": "bytes4"
        }
      ],
      "name": "supportsInterface",
      "outputs": [
        {
          "internalType": "bool",
          "name": "",
          "type": "bool"
        }
      ],
      "stateMutability": "view",
      "type": "function"
    },
    {
      "inputs": [],
      "name": "symbol",
      "outputs": [
        {
          "internalType": "string",
          "name": "",
          "type": "string"
        }
      ],
      "stateMutability": "view",
      "type": "function"
    },
    {
      "inputs": [
        {
          "internalType": "uint256",
          "name": "",
          "type": "uint256"
        }
      ],
      "name": "tokenIdToStarInfo",
      "outputs": [
        {
          "internalType": "string",
          "name": "name",
          "type": "string"
        },
        {
          "internalType": "uint256",
          "name": "id",
          "type": "uint256"
        }
      ],
      "stateMutability": "view",
      "type": "function"
    },
    {
      "inputs": [
        {
          "internalType": "string",
          "name": "",
          "type": "string"
        }
      ],
      "name": "tokenName_StarInfo",
      "outputs": [
        {
          "internalType": "string",
          "name": "name",
          "type": "string"
        },
        {
          "internalType": "uint256",
          "name": "id",
          "type": "uint256"
        }
      ],
      "stateMutability": "view",
      "type": "function"
    },
    {
      "inputs": [
        {
          "internalType": "uint256",
          "name": "tokenId",
          "type": "uint256"
        }
      ],
      "name": "tokenURI",
      "outputs": [
        {
          "internalType": "string",
          "name": "",
          "type": "string"
        }
      ],
      "stateMutability": "view",
      "type": "function"
    },
    {
      "inputs": [
        {
          "internalType": "address",
          "name": "from",
          "type": "address"
        },
        {
          "internalType": "address",
          "name": "to",
          "type": "address"
        },
        {
          "internalType": "uint256",
          "name": "tokenId",
          "type": "uint256"
        }
      ],
      "name": "transferFrom",
      "outputs": [],
      "stateMutability": "nonpayable",
      "type": "function"
    },
    {
      "inputs": [
        {
          "internalType": "string",
          "name": "_name",
          "type": "string"
        },
        {
          "internalType": "uint256",
          "name": "_tokenId",
          "type": "uint256"
        }
      ],
      "name": "createStar",
      "outputs": [],
      "stateMutability": "nonpayable",
      "type": "function"
    },
    {
      "inputs": [
        {
          "internalType": "uint256",
          "name": "_tokenId",
          "type": "uint256"
        },
        {
          "internalType": "uint256",
          "name": "_price",
          "type": "uint256"
        }
      ],
      "name": "putStarUpForSale",
      "outputs": [],
      "stateMutability": "nonpayable",
      "type": "function"
    },
    {
      "inputs": [
        {
          "internalType": "uint256",
          "name": "_tokenId",
          "type": "uint256"
        }
      ],
      "name": "buyStar",
      "outputs": [],
      "stateMutability": "payable",
      "type": "function"
    }
  ],
  "bytecode": "0x60806040523480156200001157600080fd5b506040518060400160405280600881526020017f537461724d6174650000000000000000000000000000000000000000000000008152506040518060400160405280600381526020017f53544d0000000000000000000000000000000000000000000000000000000000815250816000908051906020019062000096929190620000b8565b508060019080519060200190620000af929190620000b8565b505050620001cd565b828054620000c69062000168565b90600052602060002090601f016020900481019282620000ea576000855562000136565b82601f106200010557805160ff191683800117855562000136565b8280016001018555821562000136579182015b828111156200013557825182559160200191906001019062000118565b5b50905062000145919062000149565b5090565b5b80821115620001645760008160009055506001016200014a565b5090565b600060028204905060018216806200018157607f821691505b602082108114156200019857620001976200019e565b5b50919050565b7f4e487b7100000000000000000000000000000000000000000000000000000000600052602260045260246000fd5b612f7980620001dd6000396000f3fe6080604052600436106101145760003560e01c806342842e0e116100a0578063a22cb46511610064578063a22cb465146103c7578063b88d4fde146103f0578063c87b56dd14610419578063e985e9c514610456578063f124348e1461049357610114565b806342842e0e146102d05780636352211e146102f957806370a082311461033657806395d89b41146103735780639697c0a11461039e57610114565b8063095ea7b3116100e7578063095ea7b3146101fb5780631967fd981461022457806323b872dd146102625780632f1c34ef1461028b578063316a4361146102a757610114565b806301ffc9a7146101195780630564b1301461015657806306fdde0314610193578063081812fc146101be575b600080fd5b34801561012557600080fd5b50610140600480360381019061013b9190611fbb565b6104d1565b60405161014d9190612881565b60405180910390f35b34801561016257600080fd5b5061017d600480360381019061017891906120a2565b6105b3565b60405161018a9190612b0e565b60405180910390f35b34801561019f57600080fd5b506101a86105cb565b6040516101b5919061289c565b60405180910390f35b3480156101ca57600080fd5b506101e560048036038101906101e091906120a2565b61065d565b6040516101f2919061281a565b60405180910390f35b34801561020757600080fd5b50610222600480360381019061021d9190611f7f565b6106e2565b005b34801561023057600080fd5b5061024b600480360381019061024691906120a2565b6107fa565b6040516102599291906128be565b60405180910390f35b34801561026e57600080fd5b5061028960048036038101906102849190611e79565b6108a6565b005b6102a560048036038101906102a091906120a2565b610906565b005b3480156102b357600080fd5b506102ce60048036038101906102c991906120cb565b610a83565b005b3480156102dc57600080fd5b506102f760048036038101906102f29190611e79565b610b15565b005b34801561030557600080fd5b50610320600480360381019061031b91906120a2565b610b35565b60405161032d919061281a565b60405180910390f35b34801561034257600080fd5b5061035d60048036038101906103589190611e14565b610be7565b60405161036a9190612b0e565b60405180910390f35b34801561037f57600080fd5b50610388610c9f565b604051610395919061289c565b60405180910390f35b3480156103aa57600080fd5b506103c560048036038101906103c0919061204e565b610d31565b005b3480156103d357600080fd5b506103ee60048036038101906103e99190611f43565b610de0565b005b3480156103fc57600080fd5b5061041760048036038101906104129190611ec8565b610f61565b005b34801561042557600080fd5b50610440600480360381019061043b91906120a2565b610fc3565b60405161044d919061289c565b60405180910390f35b34801561046257600080fd5b5061047d60048036038101906104789190611e3d565b61106a565b60405161048a9190612881565b60405180910390f35b34801561049f57600080fd5b506104ba60048036038101906104b5919061200d565b6110fe565b6040516104c89291906128be565b60405180910390f35b60007f80ac58cd000000000000000000000000000000000000000000000000000000007bffffffffffffffffffffffffffffffffffffffffffffffffffffffff1916827bffffffffffffffffffffffffffffffffffffffffffffffffffffffff1916148061059c57507f5b5e139f000000000000000000000000000000000000000000000000000000007bffffffffffffffffffffffffffffffffffffffffffffffffffffffff1916827bffffffffffffffffffffffffffffffffffffffffffffffffffffffff1916145b806105ac57506105ab826111c0565b5b9050919050565b60086020528060005260406000206000915090505481565b6060600080546105da90612d6e565b80601f016020809104026020016040519081016040528092919081815260200182805461060690612d6e565b80156106535780601f1061062857610100808354040283529160200191610653565b820191906000526020600020905b81548152906001019060200180831161063657829003601f168201915b5050505050905090565b60006106688261122a565b6106a7576040517f08c379a000000000000000000000000000000000000000000000000000000000815260040161069e90612a2e565b60405180910390fd5b6004600083815260200190815260200160002060009054906101000a900473ffffffffffffffffffffffffffffffffffffffff169050919050565b60006106ed82610b35565b90508073ffffffffffffffffffffffffffffffffffffffff168373ffffffffffffffffffffffffffffffffffffffff16141561075e576040517f08c379a000000000000000000000000000000000000000000000000000000000815260040161075590612aae565b60405180910390fd5b8073ffffffffffffffffffffffffffffffffffffffff1661077d611296565b73ffffffffffffffffffffffffffffffffffffffff1614806107ac57506107ab816107a6611296565b61106a565b5b6107eb576040517f08c379a00000000000000000000000000000000000000000000000000000000081526004016107e2906129ae565b60405180910390fd5b6107f5838361129e565b505050565b600660205280600052604060002060009150905080600001805461081d90612d6e565b80601f016020809104026020016040519081016040528092919081815260200182805461084990612d6e565b80156108965780601f1061086b57610100808354040283529160200191610896565b820191906000526020600020905b81548152906001019060200180831161087957829003601f168201915b5050505050908060010154905082565b6108b76108b1611296565b82611357565b6108f6576040517f08c379a00000000000000000000000000000000000000000000000000000000081526004016108ed90612aee565b60405180910390fd5b610901838383611435565b505050565b600060086000838152602001908152602001600020541161095c576040517f08c379a000000000000000000000000000000000000000000000000000000000815260040161095390612ace565b60405180910390fd5b600060086000838152602001908152602001600020549050600061097f83610b35565b90508134116109c3576040517f08c379a00000000000000000000000000000000000000000000000000000000081526004016109ba90612a8e565b60405180910390fd5b6109ce8133856108a6565b60006109d982611691565b90508073ffffffffffffffffffffffffffffffffffffffff166108fc849081150290604051600060405180830381858888f19350505050158015610a21573d6000803e3d6000fd5b5082341115610a7d573373ffffffffffffffffffffffffffffffffffffffff166108fc8434610a509190612c84565b9081150290604051600060405180830381858888f19350505050158015610a7b573d6000803e3d6000fd5b505b50505050565b3373ffffffffffffffffffffffffffffffffffffffff16610aa383610b35565b73ffffffffffffffffffffffffffffffffffffffff1614610af9576040517f08c379a0000000000000000000000000000000000000000000000000000000008152600401610af0906128ee565b60405180910390fd5b8060086000848152602001908152602001600020819055505050565b610b3083838360405180602001604052806000815250610f61565b505050565b6000806002600084815260200190815260200160002060009054906101000a900473ffffffffffffffffffffffffffffffffffffffff169050600073ffffffffffffffffffffffffffffffffffffffff168173ffffffffffffffffffffffffffffffffffffffff161415610bde576040517f08c379a0000000000000000000000000000000000000000000000000000000008152600401610bd5906129ee565b60405180910390fd5b80915050919050565b60008073ffffffffffffffffffffffffffffffffffffffff168273ffffffffffffffffffffffffffffffffffffffff161415610c58576040517f08c379a0000000000000000000000000000000000000000000000000000000008152600401610c4f906129ce565b60405180910390fd5b600360008373ffffffffffffffffffffffffffffffffffffffff1673ffffffffffffffffffffffffffffffffffffffff168152602001908152602001600020549050919050565b606060018054610cae90612d6e565b80601f0160208091040260200160405190810160405280929190818152602001828054610cda90612d6e565b8015610d275780601f10610cfc57610100808354040283529160200191610d27565b820191906000526020600020905b815481529060010190602001808311610d0a57829003601f168201915b5050505050905090565b6000604051806040016040528084815260200183815250905080600660008481526020019081526020016000206000820151816000019080519060200190610d7a929190611c38565b506020820151816001015590505080600784604051610d9991906127df565b90815260200160405180910390206000820151816000019080519060200190610dc3929190611c38565b5060208201518160010155905050610ddb338361169b565b505050565b610de8611296565b73ffffffffffffffffffffffffffffffffffffffff168273ffffffffffffffffffffffffffffffffffffffff161415610e56576040517f08c379a0000000000000000000000000000000000000000000000000000000008152600401610e4d9061296e565b60405180910390fd5b8060056000610e63611296565b73ffffffffffffffffffffffffffffffffffffffff1673ffffffffffffffffffffffffffffffffffffffff16815260200190815260200160002060008473ffffffffffffffffffffffffffffffffffffffff1673ffffffffffffffffffffffffffffffffffffffff16815260200190815260200160002060006101000a81548160ff0219169083151502179055508173ffffffffffffffffffffffffffffffffffffffff16610f10611296565b73ffffffffffffffffffffffffffffffffffffffff167f17307eab39ab6107e8899845ad3d59bd9653f200f220920489ca2b5937696c3183604051610f559190612881565b60405180910390a35050565b610f72610f6c611296565b83611357565b610fb1576040517f08c379a0000000000000000000000000000000000000000000000000000000008152600401610fa890612aee565b60405180910390fd5b610fbd84848484611869565b50505050565b6060610fce8261122a565b61100d576040517f08c379a000000000000000000000000000000000000000000000000000000000815260040161100490612a6e565b60405180910390fd5b60006110176118c5565b905060008151116110375760405180602001604052806000815250611062565b80611041846118dc565b6040516020016110529291906127f6565b6040516020818303038152906040525b915050919050565b6000600560008473ffffffffffffffffffffffffffffffffffffffff1673ffffffffffffffffffffffffffffffffffffffff16815260200190815260200160002060008373ffffffffffffffffffffffffffffffffffffffff1673ffffffffffffffffffffffffffffffffffffffff16815260200190815260200160002060009054906101000a900460ff16905092915050565b60078180516020810182018051848252602083016020850120818352809550505050505060009150905080600001805461113790612d6e565b80601f016020809104026020016040519081016040528092919081815260200182805461116390612d6e565b80156111b05780601f10611185576101008083540402835291602001916111b0565b820191906000526020600020905b81548152906001019060200180831161119357829003601f168201915b5050505050908060010154905082565b60007f01ffc9a7000000000000000000000000000000000000000000000000000000007bffffffffffffffffffffffffffffffffffffffffffffffffffffffff1916827bffffffffffffffffffffffffffffffffffffffffffffffffffffffff1916149050919050565b60008073ffffffffffffffffffffffffffffffffffffffff166002600084815260200190815260200160002060009054906101000a900473ffffffffffffffffffffffffffffffffffffffff1673ffffffffffffffffffffffffffffffffffffffff1614159050919050565b600033905090565b816004600083815260200190815260200160002060006101000a81548173ffffffffffffffffffffffffffffffffffffffff021916908373ffffffffffffffffffffffffffffffffffffffff160217905550808273ffffffffffffffffffffffffffffffffffffffff1661131183610b35565b73ffffffffffffffffffffffffffffffffffffffff167f8c5be1e5ebec7d5bd14f71427d1e84f3dd0314c0f7b2291e5b200ac8c7c3b92560405160405180910390a45050565b60006113628261122a565b6113a1576040517f08c379a00000000000000000000000000000000000000000000000000000000081526004016113989061298e565b60405180910390fd5b60006113ac83610b35565b90508073ffffffffffffffffffffffffffffffffffffffff168473ffffffffffffffffffffffffffffffffffffffff16148061141b57508373ffffffffffffffffffffffffffffffffffffffff166114038461065d565b73ffffffffffffffffffffffffffffffffffffffff16145b8061142c575061142b818561106a565b5b91505092915050565b8273ffffffffffffffffffffffffffffffffffffffff1661145582610b35565b73ffffffffffffffffffffffffffffffffffffffff16146114ab576040517f08c379a00000000000000000000000000000000000000000000000000000000081526004016114a290612a4e565b60405180910390fd5b600073ffffffffffffffffffffffffffffffffffffffff168273ffffffffffffffffffffffffffffffffffffffff16141561151b576040517f08c379a00000000000000000000000000000000000000000000000000000000081526004016115129061294e565b60405180910390fd5b611526838383611a89565b61153160008261129e565b6001600360008573ffffffffffffffffffffffffffffffffffffffff1673ffffffffffffffffffffffffffffffffffffffff16815260200190815260200160002060008282546115819190612c84565b925050819055506001600360008473ffffffffffffffffffffffffffffffffffffffff1673ffffffffffffffffffffffffffffffffffffffff16815260200190815260200160002060008282546115d89190612bfd565b92505081905550816002600083815260200190815260200160002060006101000a81548173ffffffffffffffffffffffffffffffffffffffff021916908373ffffffffffffffffffffffffffffffffffffffff160217905550808273ffffffffffffffffffffffffffffffffffffffff168473ffffffffffffffffffffffffffffffffffffffff167fddf252ad1be2c89b69c2b068fc378daa952ba7f163c4a11628f55a4df523b3ef60405160405180910390a4505050565b6000819050919050565b600073ffffffffffffffffffffffffffffffffffffffff168273ffffffffffffffffffffffffffffffffffffffff16141561170b576040517f08c379a000000000000000000000000000000000000000000000000000000000815260040161170290612a0e565b60405180910390fd5b6117148161122a565b15611754576040517f08c379a000000000000000000000000000000000000000000000000000000000815260040161174b9061292e565b60405180910390fd5b61176060008383611a89565b6001600360008473ffffffffffffffffffffffffffffffffffffffff1673ffffffffffffffffffffffffffffffffffffffff16815260200190815260200160002060008282546117b09190612bfd565b92505081905550816002600083815260200190815260200160002060006101000a81548173ffffffffffffffffffffffffffffffffffffffff021916908373ffffffffffffffffffffffffffffffffffffffff160217905550808273ffffffffffffffffffffffffffffffffffffffff16600073ffffffffffffffffffffffffffffffffffffffff167fddf252ad1be2c89b69c2b068fc378daa952ba7f163c4a11628f55a4df523b3ef60405160405180910390a45050565b611874848484611435565b61188084848484611a8e565b6118bf576040517f08c379a00000000000000000000000000000000000000000000000000000000081526004016118b69061290e565b60405180910390fd5b50505050565b606060405180602001604052806000815250905090565b60606000821415611924576040518060400160405280600181526020017f30000000000000000000000000000000000000000000000000000000000000008152509050611a84565b600082905060005b6000821461195657808061193f90612da0565b915050600a8261194f9190612c53565b915061192c565b60008167ffffffffffffffff811115611998577f4e487b7100000000000000000000000000000000000000000000000000000000600052604160045260246000fd5b6040519080825280601f01601f1916602001820160405280156119ca5781602001600182028036833780820191505090505b5090505b60008514611a7d576001826119e39190612c84565b9150600a856119f29190612de9565b60306119fe9190612bfd565b60f81b818381518110611a3a577f4e487b7100000000000000000000000000000000000000000000000000000000600052603260045260246000fd5b60200101907effffffffffffffffffffffffffffffffffffffffffffffffffffffffffffff1916908160001a905350600a85611a769190612c53565b94506119ce565b8093505050505b919050565b505050565b6000611aaf8473ffffffffffffffffffffffffffffffffffffffff16611c25565b15611c18578373ffffffffffffffffffffffffffffffffffffffff1663150b7a02611ad8611296565b8786866040518563ffffffff1660e01b8152600401611afa9493929190612835565b602060405180830381600087803b158015611b1457600080fd5b505af1925050508015611b4557506040513d601f19601f82011682018060405250810190611b429190611fe4565b60015b611bc8573d8060008114611b75576040519150601f19603f3d011682016040523d82523d6000602084013e611b7a565b606091505b50600081511415611bc0576040517f08c379a0000000000000000000000000000000000000000000000000000000008152600401611bb79061290e565b60405180910390fd5b805181602001fd5b63150b7a0260e01b7bffffffffffffffffffffffffffffffffffffffffffffffffffffffff1916817bffffffffffffffffffffffffffffffffffffffffffffffffffffffff191614915050611c1d565b600190505b949350505050565b600080823b905060008111915050919050565b828054611c4490612d6e565b90600052602060002090601f016020900481019282611c665760008555611cad565b82601f10611c7f57805160ff1916838001178555611cad565b82800160010185558215611cad579182015b82811115611cac578251825591602001919060010190611c91565b5b509050611cba9190611cbe565b5090565b5b80821115611cd7576000816000905550600101611cbf565b5090565b6000611cee611ce984612b5a565b612b29565b905082815260208101848484011115611d0657600080fd5b611d11848285612d2c565b509392505050565b6000611d2c611d2784612b8a565b612b29565b905082815260208101848484011115611d4457600080fd5b611d4f848285612d2c565b509392505050565b600081359050611d6681612ee7565b92915050565b600081359050611d7b81612efe565b92915050565b600081359050611d9081612f15565b92915050565b600081519050611da581612f15565b92915050565b600082601f830112611dbc57600080fd5b8135611dcc848260208601611cdb565b91505092915050565b600082601f830112611de657600080fd5b8135611df6848260208601611d19565b91505092915050565b600081359050611e0e81612f2c565b92915050565b600060208284031215611e2657600080fd5b6000611e3484828501611d57565b91505092915050565b60008060408385031215611e5057600080fd5b6000611e5e85828601611d57565b9250506020611e6f85828601611d57565b9150509250929050565b600080600060608486031215611e8e57600080fd5b6000611e9c86828701611d57565b9350506020611ead86828701611d57565b9250506040611ebe86828701611dff565b9150509250925092565b60008060008060808587031215611ede57600080fd5b6000611eec87828801611d57565b9450506020611efd87828801611d57565b9350506040611f0e87828801611dff565b925050606085013567ffffffffffffffff811115611f2b57600080fd5b611f3787828801611dab565b91505092959194509250565b60008060408385031215611f5657600080fd5b6000611f6485828601611d57565b9250506020611f7585828601611d6c565b9150509250929050565b60008060408385031215611f9257600080fd5b6000611fa085828601611d57565b9250506020611fb185828601611dff565b9150509250929050565b600060208284031215611fcd57600080fd5b6000611fdb84828501611d81565b91505092915050565b600060208284031215611ff657600080fd5b600061200484828501611d96565b91505092915050565b60006020828403121561201f57600080fd5b600082013567ffffffffffffffff81111561203957600080fd5b61204584828501611dd5565b91505092915050565b6000806040838503121561206157600080fd5b600083013567ffffffffffffffff81111561207b57600080fd5b61208785828601611dd5565b925050602061209885828601611dff565b9150509250929050565b6000602082840312156120b457600080fd5b60006120c284828501611dff565b91505092915050565b600080604083850312156120de57600080fd5b60006120ec85828601611dff565b92505060206120fd85828601611dff565b9150509250929050565b61211081612cb8565b82525050565b61211f81612cca565b82525050565b600061213082612bba565b61213a8185612bd0565b935061214a818560208601612d3b565b61215381612ed6565b840191505092915050565b600061216982612bc5565b6121738185612be1565b9350612183818560208601612d3b565b61218c81612ed6565b840191505092915050565b60006121a282612bc5565b6121ac8185612bf2565b93506121bc818560208601612d3b565b80840191505092915050565b60006121d5602783612be1565b91507f596f752063616e27742073616c6520746865205374617220796f7520646f6e2760008301527f74206f776e6564000000000000000000000000000000000000000000000000006020830152604082019050919050565b600061223b603283612be1565b91507f4552433732313a207472616e7366657220746f206e6f6e20455243373231526560008301527f63656976657220696d706c656d656e74657200000000000000000000000000006020830152604082019050919050565b60006122a1601c83612be1565b91507f4552433732313a20746f6b656e20616c7265616479206d696e746564000000006000830152602082019050919050565b60006122e1602483612be1565b91507f4552433732313a207472616e7366657220746f20746865207a65726f2061646460008301527f72657373000000000000000000000000000000000000000000000000000000006020830152604082019050919050565b6000612347601983612be1565b91507f4552433732313a20617070726f766520746f2063616c6c6572000000000000006000830152602082019050919050565b6000612387602c83612be1565b91507f4552433732313a206f70657261746f7220717565727920666f72206e6f6e657860008301527f697374656e7420746f6b656e00000000000000000000000000000000000000006020830152604082019050919050565b60006123ed603883612be1565b91507f4552433732313a20617070726f76652063616c6c6572206973206e6f74206f7760008301527f6e6572206e6f7220617070726f76656420666f7220616c6c00000000000000006020830152604082019050919050565b6000612453602a83612be1565b91507f4552433732313a2062616c616e636520717565727920666f7220746865207a6560008301527f726f2061646472657373000000000000000000000000000000000000000000006020830152604082019050919050565b60006124b9602983612be1565b91507f4552433732313a206f776e657220717565727920666f72206e6f6e657869737460008301527f656e7420746f6b656e00000000000000000000000000000000000000000000006020830152604082019050919050565b600061251f602083612be1565b91507f4552433732313a206d696e7420746f20746865207a65726f20616464726573736000830152602082019050919050565b600061255f602c83612be1565b91507f4552433732313a20617070726f76656420717565727920666f72206e6f6e657860008301527f697374656e7420746f6b656e00000000000000000000000000000000000000006020830152604082019050919050565b60006125c5602983612be1565b91507f4552433732313a207472616e73666572206f6620746f6b656e2074686174206960008301527f73206e6f74206f776e00000000000000000000000000000000000000000000006020830152604082019050919050565b600061262b602f83612be1565b91507f4552433732314d657461646174613a2055524920717565727920666f72206e6f60008301527f6e6578697374656e7420746f6b656e00000000000000000000000000000000006020830152604082019050919050565b6000612691601d83612be1565b91507f596f75206e65656420746f206861766520656e6f7567682045746865720000006000830152602082019050919050565b60006126d1602183612be1565b91507f4552433732313a20617070726f76616c20746f2063757272656e74206f776e6560008301527f72000000000000000000000000000000000000000000000000000000000000006020830152604082019050919050565b6000612737601e83612be1565b91507f54686520537461722073686f756c6420626520757020666f722073616c6500006000830152602082019050919050565b6000612777603183612be1565b91507f4552433732313a207472616e736665722063616c6c6572206973206e6f74206f60008301527f776e6572206e6f7220617070726f7665640000000000000000000000000000006020830152604082019050919050565b6127d981612d22565b82525050565b60006127eb8284612197565b915081905092915050565b60006128028285612197565b915061280e8284612197565b91508190509392505050565b600060208201905061282f6000830184612107565b92915050565b600060808201905061284a6000830187612107565b6128576020830186612107565b61286460408301856127d0565b81810360608301526128768184612125565b905095945050505050565b60006020820190506128966000830184612116565b92915050565b600060208201905081810360008301526128b6818461215e565b905092915050565b600060408201905081810360008301526128d8818561215e565b90506128e760208301846127d0565b9392505050565b60006020820190508181036000830152612907816121c8565b9050919050565b600060208201905081810360008301526129278161222e565b9050919050565b6000602082019050818103600083015261294781612294565b9050919050565b60006020820190508181036000830152612967816122d4565b9050919050565b600060208201905081810360008301526129878161233a565b9050919050565b600060208201905081810360008301526129a78161237a565b9050919050565b600060208201905081810360008301526129c7816123e0565b9050919050565b600060208201905081810360008301526129e781612446565b9050919050565b60006020820190508181036000830152612a07816124ac565b9050919050565b60006020820190508181036000830152612a2781612512565b9050919050565b60006020820190508181036000830152612a4781612552565b9050919050565b60006020820190508181036000830152612a67816125b8565b9050919050565b60006020820190508181036000830152612a878161261e565b9050919050565b60006020820190508181036000830152612aa781612684565b9050919050565b60006020820190508181036000830152612ac7816126c4565b9050919050565b60006020820190508181036000830152612ae78161272a565b9050919050565b60006020820190508181036000830152612b078161276a565b9050919050565b6000602082019050612b2360008301846127d0565b92915050565b6000604051905081810181811067ffffffffffffffff82111715612b5057612b4f612ea7565b5b8060405250919050565b600067ffffffffffffffff821115612b7557612b74612ea7565b5b601f19601f8301169050602081019050919050565b600067ffffffffffffffff821115612ba557612ba4612ea7565b5b601f19601f8301169050602081019050919050565b600081519050919050565b600081519050919050565b600082825260208201905092915050565b600082825260208201905092915050565b600081905092915050565b6000612c0882612d22565b9150612c1383612d22565b9250827fffffffffffffffffffffffffffffffffffffffffffffffffffffffffffffffff03821115612c4857612c47612e1a565b5b828201905092915050565b6000612c5e82612d22565b9150612c6983612d22565b925082612c7957612c78612e49565b5b828204905092915050565b6000612c8f82612d22565b9150612c9a83612d22565b925082821015612cad57612cac612e1a565b5b828203905092915050565b6000612cc382612d02565b9050919050565b60008115159050919050565b60007fffffffff0000000000000000000000000000000000000000000000000000000082169050919050565b600073ffffffffffffffffffffffffffffffffffffffff82169050919050565b6000819050919050565b82818337600083830152505050565b60005b83811015612d59578082015181840152602081019050612d3e565b83811115612d68576000848401525b50505050565b60006002820490506001821680612d8657607f821691505b60208210811415612d9a57612d99612e78565b5b50919050565b6000612dab82612d22565b91507fffffffffffffffffffffffffffffffffffffffffffffffffffffffffffffffff821415612dde57612ddd612e1a565b5b600182019050919050565b6000612df482612d22565b9150612dff83612d22565b925082612e0f57612e0e612e49565b5b828206905092915050565b7f4e487b7100000000000000000000000000000000000000000000000000000000600052601160045260246000fd5b7f4e487b7100000000000000000000000000000000000000000000000000000000600052601260045260246000fd5b7f4e487b7100000000000000000000000000000000000000000000000000000000600052602260045260246000fd5b7f4e487b7100000000000000000000000000000000000000000000000000000000600052604160045260246000fd5b6000601f19601f8301169050919050565b612ef081612cb8565b8114612efb57600080fd5b50565b612f0781612cca565b8114612f1257600080fd5b50565b612f1e81612cd6565b8114612f2957600080fd5b50565b612f3581612d22565b8114612f4057600080fd5b5056fea264697066735822122055948d994664f996914e3b86992289e8e669e487dc0e283b47fc38a86865fce964736f6c63430008000033",
  "immutableReferences": {},
  "source": "pragma solidity ^0.8.0;\r\n\r\nimport \"../node_modules/openzeppelin-solidity/contracts/token/ERC721/ERC721.sol\";\r\n\r\ncontract StarNotary is ERC721 {\r\n\r\n    struct Star {\r\n        string name;\r\n        uint256 id;\r\n    }\r\n\r\n    mapping(uint256 => Star) public tokenIdToStarInfo;\r\n    mapping(string => Star) public tokenName_StarInfo;\r\n    mapping(uint256 => uint256) public starsForSale;\r\n\r\n    constructor() ERC721('StarMate', 'STM') {\r\n    }\r\n \r\n    // Create Star using the Struct\r\n    function createStar(string memory _name, uint256 _tokenId) public {\r\n        Star memory newStar = Star(_name, _tokenId);\r\n        tokenIdToStarInfo[_tokenId] = newStar;\r\n        tokenName_StarInfo[_name] = newStar;\r\n        _mint(msg.sender, _tokenId);\r\n    }\r\n\r\n    // Putting an Star for sale (Adding the star tokenid into the mapping starsForSale, first verify that the sender is the owner)\r\n    function putStarUpForSale(uint256 _tokenId, uint256 _price) public {\r\n        require(ownerOf(_tokenId) == msg.sender, \"You can't sale the Star you don't owned\");\r\n        starsForSale[_tokenId] = _price;\r\n    }\r\n \r\n    function _make_payable(address x) internal pure returns (address payable) {\r\n        return payable(address(uint160(x)));\r\n    }\r\n\r\n    function buyStar(uint256 _tokenId) public payable {\r\n        require(starsForSale[_tokenId] > 0, \"The Star should be up for sale\");\r\n        uint256 starCost = starsForSale[_tokenId];\r\n        address ownerAddress = ownerOf(_tokenId);\r\n        require(msg.value > starCost, \"You need to have enough Ether\");\r\n        transferFrom(ownerAddress, msg.sender, _tokenId);\r\n        address payable ownerAddressPayable = _make_payable(ownerAddress);\r\n        ownerAddressPayable.transfer(starCost);\r\n        if(msg.value > starCost) {\r\n           payable(msg.sender).transfer(msg.value - starCost);\r\n        }\r\n    }        \r\n  \r\n    function approveTransaction(address buyer, uint256 tokenId)\r\n        internal {\r\n            this.approve(buyer, tokenId);\r\n    }\r\n\r\n\r\n}",
  "sourcePath": "F:/PROJECTS/Udacity_Blockchain/starNotaryv2/contracts/StarNotary.sol",
  "compiler": {
    "name": "solc",
    "version": "0.8.0+commit.c7dfd78e.Emscripten.clang"
  },
  "schemaVersion": "3.3.4",
  "updatedAt": "2021-04-21T08:41:51.714Z",
  "devdoc": {
    "kind": "dev",
    "methods": {
      "approve(address,uint256)": {
        "details": "See {IERC721-approve}."
      },
      "balanceOf(address)": {
        "details": "See {IERC721-balanceOf}."
      },
      "getApproved(uint256)": {
        "details": "See {IERC721-getApproved}."
      },
      "isApprovedForAll(address,address)": {
        "details": "See {IERC721-isApprovedForAll}."
      },
      "name()": {
        "details": "See {IERC721Metadata-name}."
      },
      "ownerOf(uint256)": {
        "details": "See {IERC721-ownerOf}."
      },
      "safeTransferFrom(address,address,uint256)": {
        "details": "See {IERC721-safeTransferFrom}."
      },
      "safeTransferFrom(address,address,uint256,bytes)": {
        "details": "See {IERC721-safeTransferFrom}."
      },
      "setApprovalForAll(address,bool)": {
        "details": "See {IERC721-setApprovalForAll}."
      },
      "supportsInterface(bytes4)": {
        "details": "See {IERC165-supportsInterface}."
      },
      "symbol()": {
        "details": "See {IERC721Metadata-symbol}."
      },
      "tokenURI(uint256)": {
        "details": "See {IERC721Metadata-tokenURI}."
      },
      "transferFrom(address,address,uint256)": {
        "details": "See {IERC721-transferFrom}."
      }
    },
    "version": 1
  },
  "userdoc": {
    "kind": "user",
    "methods": {},
    "version": 1
  }
}